{
  "_format": "hh-sol-artifact-1",
  "contractName": "NFTMarketplace",
  "sourceName": "contracts/NFTMarketplace.sol",
  "abi": [
    {
      "inputs": [],
      "stateMutability": "nonpayable",
      "type": "constructor"
    },
    {
      "anonymous": false,
      "inputs": [
        {
          "indexed": true,
          "internalType": "address",
          "name": "owner",
          "type": "address"
        },
        {
          "indexed": true,
          "internalType": "address",
          "name": "approved",
          "type": "address"
        },
        {
          "indexed": true,
          "internalType": "uint256",
          "name": "tokenId",
          "type": "uint256"
        }
      ],
      "name": "Approval",
      "type": "event"
    },
    {
      "anonymous": false,
      "inputs": [
        {
          "indexed": true,
          "internalType": "address",
          "name": "owner",
          "type": "address"
        },
        {
          "indexed": true,
          "internalType": "address",
          "name": "operator",
          "type": "address"
        },
        {
          "indexed": false,
          "internalType": "bool",
          "name": "approved",
          "type": "bool"
        }
      ],
      "name": "ApprovalForAll",
      "type": "event"
    },
    {
      "anonymous": false,
      "inputs": [
        {
          "indexed": true,
          "internalType": "uint256",
          "name": "tokenId",
          "type": "uint256"
        },
        {
          "indexed": false,
          "internalType": "address",
          "name": "owner",
          "type": "address"
        },
        {
          "indexed": false,
          "internalType": "address",
          "name": "seller",
          "type": "address"
        },
        {
          "indexed": false,
          "internalType": "uint256",
          "name": "price",
          "type": "uint256"
        },
        {
          "indexed": false,
          "internalType": "bool",
          "name": "currentlyListed",
          "type": "bool"
        }
      ],
      "name": "TokenListedSuccess",
      "type": "event"
    },
    {
      "anonymous": false,
      "inputs": [
        {
          "indexed": true,
          "internalType": "address",
          "name": "from",
          "type": "address"
        },
        {
          "indexed": true,
          "internalType": "address",
          "name": "to",
          "type": "address"
        },
        {
          "indexed": true,
          "internalType": "uint256",
          "name": "tokenId",
          "type": "uint256"
        }
      ],
      "name": "Transfer",
      "type": "event"
    },
    {
      "inputs": [
        {
          "internalType": "address",
          "name": "to",
          "type": "address"
        },
        {
          "internalType": "uint256",
          "name": "tokenId",
          "type": "uint256"
        }
      ],
      "name": "approve",
      "outputs": [],
      "stateMutability": "nonpayable",
      "type": "function"
    },
    {
      "inputs": [
        {
          "internalType": "address",
          "name": "owner",
          "type": "address"
        }
      ],
      "name": "balanceOf",
      "outputs": [
        {
          "internalType": "uint256",
          "name": "",
          "type": "uint256"
        }
      ],
      "stateMutability": "view",
      "type": "function"
    },
    {
      "inputs": [
        {
          "internalType": "string",
          "name": "tokenURI",
          "type": "string"
        },
        {
          "internalType": "uint256",
          "name": "price",
          "type": "uint256"
        }
      ],
      "name": "createToken",
      "outputs": [
        {
          "internalType": "uint256",
          "name": "",
          "type": "uint256"
        }
      ],
      "stateMutability": "payable",
      "type": "function"
    },
    {
      "inputs": [
        {
          "internalType": "uint256",
          "name": "tokenId",
          "type": "uint256"
        }
      ],
      "name": "executeSale",
      "outputs": [],
      "stateMutability": "payable",
      "type": "function"
    },
    {
      "inputs": [
        {
          "internalType": "uint256",
          "name": "tokenId",
          "type": "uint256"
        }
      ],
      "name": "getApproved",
      "outputs": [
        {
          "internalType": "address",
          "name": "",
          "type": "address"
        }
      ],
      "stateMutability": "view",
      "type": "function"
    },
    {
      "inputs": [],
      "name": "getCurrentToken",
      "outputs": [
        {
          "internalType": "uint256",
          "name": "",
          "type": "uint256"
        }
      ],
      "stateMutability": "view",
      "type": "function"
    },
    {
      "inputs": [],
      "name": "getLatestIdToListedToken",
      "outputs": [
        {
          "components": [
            {
              "internalType": "uint256",
              "name": "tokenId",
              "type": "uint256"
            },
            {
              "internalType": "address payable",
              "name": "owner",
              "type": "address"
            },
            {
              "internalType": "address payable",
              "name": "seller",
              "type": "address"
            },
            {
              "internalType": "uint256",
              "name": "price",
              "type": "uint256"
            },
            {
              "internalType": "bool",
              "name": "currentlyListed",
              "type": "bool"
            }
          ],
          "internalType": "struct NFTMarketplace.ListedToken",
          "name": "",
          "type": "tuple"
        }
      ],
      "stateMutability": "view",
      "type": "function"
    },
    {
      "inputs": [],
      "name": "getListPrice",
      "outputs": [
        {
          "internalType": "uint256",
          "name": "",
          "type": "uint256"
        }
      ],
      "stateMutability": "view",
      "type": "function"
    },
    {
      "inputs": [],
      "name": "getListedItems",
      "outputs": [
        {
          "components": [
            {
              "internalType": "uint256",
              "name": "tokenId",
              "type": "uint256"
            },
            {
              "internalType": "address payable",
              "name": "owner",
              "type": "address"
            },
            {
              "internalType": "address payable",
              "name": "seller",
              "type": "address"
            },
            {
              "internalType": "uint256",
              "name": "price",
              "type": "uint256"
            },
            {
              "internalType": "bool",
              "name": "currentlyListed",
              "type": "bool"
            }
          ],
          "internalType": "struct NFTMarketplace.ListedToken[]",
          "name": "",
          "type": "tuple[]"
        }
      ],
      "stateMutability": "view",
      "type": "function"
    },
    {
      "inputs": [
        {
          "internalType": "uint256",
          "name": "tokenId",
          "type": "uint256"
        }
      ],
      "name": "getListedTokenForId",
      "outputs": [
        {
          "components": [
            {
              "internalType": "uint256",
              "name": "tokenId",
              "type": "uint256"
            },
            {
              "internalType": "address payable",
              "name": "owner",
              "type": "address"
            },
            {
              "internalType": "address payable",
              "name": "seller",
              "type": "address"
            },
            {
              "internalType": "uint256",
              "name": "price",
              "type": "uint256"
            },
            {
              "internalType": "bool",
              "name": "currentlyListed",
              "type": "bool"
            }
          ],
          "internalType": "struct NFTMarketplace.ListedToken",
          "name": "",
          "type": "tuple"
        }
      ],
      "stateMutability": "view",
      "type": "function"
    },
    {
      "inputs": [],
      "name": "getMarketItems",
      "outputs": [
        {
          "components": [
            {
              "internalType": "uint256",
              "name": "tokenId",
              "type": "uint256"
            },
            {
              "internalType": "address payable",
              "name": "owner",
              "type": "address"
            },
            {
              "internalType": "address payable",
              "name": "seller",
              "type": "address"
            },
            {
              "internalType": "uint256",
              "name": "price",
              "type": "uint256"
            },
            {
              "internalType": "bool",
              "name": "currentlyListed",
              "type": "bool"
            }
          ],
          "internalType": "struct NFTMarketplace.ListedToken[]",
          "name": "",
          "type": "tuple[]"
        }
      ],
      "stateMutability": "view",
      "type": "function"
    },
    {
      "inputs": [],
      "name": "getMyNFTs",
      "outputs": [
        {
          "components": [
            {
              "internalType": "uint256",
              "name": "tokenId",
              "type": "uint256"
            },
            {
              "internalType": "address payable",
              "name": "owner",
              "type": "address"
            },
            {
              "internalType": "address payable",
              "name": "seller",
              "type": "address"
            },
            {
              "internalType": "uint256",
              "name": "price",
              "type": "uint256"
            },
            {
              "internalType": "bool",
              "name": "currentlyListed",
              "type": "bool"
            }
          ],
          "internalType": "struct NFTMarketplace.ListedToken[]",
          "name": "",
          "type": "tuple[]"
        }
      ],
      "stateMutability": "view",
      "type": "function"
    },
    {
      "inputs": [
        {
          "internalType": "address",
          "name": "owner",
          "type": "address"
        },
        {
          "internalType": "address",
          "name": "operator",
          "type": "address"
        }
      ],
      "name": "isApprovedForAll",
      "outputs": [
        {
          "internalType": "bool",
          "name": "",
          "type": "bool"
        }
      ],
      "stateMutability": "view",
      "type": "function"
    },
    {
      "inputs": [],
      "name": "name",
      "outputs": [
        {
          "internalType": "string",
          "name": "",
          "type": "string"
        }
      ],
      "stateMutability": "view",
      "type": "function"
    },
    {
      "inputs": [
        {
          "internalType": "uint256",
          "name": "tokenId",
          "type": "uint256"
        }
      ],
      "name": "ownerOf",
      "outputs": [
        {
          "internalType": "address",
          "name": "",
          "type": "address"
        }
      ],
      "stateMutability": "view",
      "type": "function"
    },
    {
      "inputs": [
        {
          "internalType": "uint256",
          "name": "tokenId",
          "type": "uint256"
        },
        {
          "internalType": "uint256",
          "name": "price",
          "type": "uint256"
        }
      ],
      "name": "resellToken",
      "outputs": [],
      "stateMutability": "payable",
      "type": "function"
    },
    {
      "inputs": [
        {
          "internalType": "address",
          "name": "from",
          "type": "address"
        },
        {
          "internalType": "address",
          "name": "to",
          "type": "address"
        },
        {
          "internalType": "uint256",
          "name": "tokenId",
          "type": "uint256"
        }
      ],
      "name": "safeTransferFrom",
      "outputs": [],
      "stateMutability": "nonpayable",
      "type": "function"
    },
    {
      "inputs": [
        {
          "internalType": "address",
          "name": "from",
          "type": "address"
        },
        {
          "internalType": "address",
          "name": "to",
          "type": "address"
        },
        {
          "internalType": "uint256",
          "name": "tokenId",
          "type": "uint256"
        },
        {
          "internalType": "bytes",
          "name": "data",
          "type": "bytes"
        }
      ],
      "name": "safeTransferFrom",
      "outputs": [],
      "stateMutability": "nonpayable",
      "type": "function"
    },
    {
      "inputs": [
        {
          "internalType": "address",
          "name": "operator",
          "type": "address"
        },
        {
          "internalType": "bool",
          "name": "approved",
          "type": "bool"
        }
      ],
      "name": "setApprovalForAll",
      "outputs": [],
      "stateMutability": "nonpayable",
      "type": "function"
    },
    {
      "inputs": [
        {
          "internalType": "bytes4",
          "name": "interfaceId",
          "type": "bytes4"
        }
      ],
      "name": "supportsInterface",
      "outputs": [
        {
          "internalType": "bool",
          "name": "",
          "type": "bool"
        }
      ],
      "stateMutability": "view",
      "type": "function"
    },
    {
      "inputs": [],
      "name": "symbol",
      "outputs": [
        {
          "internalType": "string",
          "name": "",
          "type": "string"
        }
      ],
      "stateMutability": "view",
      "type": "function"
    },
    {
      "inputs": [
        {
          "internalType": "uint256",
          "name": "tokenId",
          "type": "uint256"
        }
      ],
      "name": "tokenURI",
      "outputs": [
        {
          "internalType": "string",
          "name": "",
          "type": "string"
        }
      ],
      "stateMutability": "view",
      "type": "function"
    },
    {
      "inputs": [
        {
          "internalType": "address",
          "name": "from",
          "type": "address"
        },
        {
          "internalType": "address",
          "name": "to",
          "type": "address"
        },
        {
          "internalType": "uint256",
          "name": "tokenId",
          "type": "uint256"
        }
      ],
      "name": "transferFrom",
      "outputs": [],
      "stateMutability": "nonpayable",
      "type": "function"
    },
    {
      "inputs": [
        {
          "internalType": "uint256",
          "name": "_listPrice",
          "type": "uint256"
        }
      ],
      "name": "updateListPrice",
      "outputs": [],
      "stateMutability": "payable",
      "type": "function"
    }
  ],
  "bytecode": "0x60806040526608e1bc9bf04000600a553480156200001c57600080fd5b50604080518082018252601881527f446563656e74726120446576204d61726b6574706c616365000000000000000060208083019182528351808501909452600384526244444d60e81b9084015281519192916200007d91600091620000ae565b50805162000093906001906020840190620000ae565b5050600980546001600160a01b031916331790555062000191565b828054620000bc9062000154565b90600052602060002090601f016020900481019282620000e057600085556200012b565b82601f10620000fb57805160ff19168380011785556200012b565b828001600101855582156200012b579182015b828111156200012b5782518255916020019190600101906200010e565b50620001399291506200013d565b5090565b5b808211156200013957600081556001016200013e565b600181811c908216806200016957607f821691505b602082108114156200018b57634e487b7160e01b600052602260045260246000fd5b50919050565b61252f80620001a16000396000f3fe60806040526004361061014b5760003560e01c80638e264590116100b6578063c87b56dd1161006f578063c87b56dd14610392578063caf50690146103b2578063d1a88ae5146103c7578063e219fc75146103dc578063e985e9c5146103ef578063ef2d17461461043857600080fd5b80638e264590146102ea57806395d89b41146103175780639b1225c41461032c578063a22cb4651461033f578063b88d4fde1461035f578063c322579c1461037f57600080fd5b806342842e0e1161010857806342842e0e14610243578063629cb2e4146102635780636352211e1461027857806368f1945f1461029857806370a08231146102b757806372b3b620146102d757600080fd5b806301ffc9a71461015057806306fdde0314610185578063081812fc146101a7578063095ea7b3146101df57806323b872dd1461020157806329aa3a4214610221575b600080fd5b34801561015c57600080fd5b5061017061016b366004612114565b61044d565b60405190151581526020015b60405180910390f35b34801561019157600080fd5b5061019a61049f565b60405161017c9190612301565b3480156101b357600080fd5b506101c76101c23660046121a2565b610531565b6040516001600160a01b03909116815260200161017c565b3480156101eb57600080fd5b506101ff6101fa3660046120eb565b610558565b005b34801561020d57600080fd5b506101ff61021c366004611ffd565b610673565b34801561022d57600080fd5b506102366106a4565b60405161017c91906122b3565b34801561024f57600080fd5b506101ff61025e366004611ffd565b61081f565b34801561026f57600080fd5b5061023661083a565b34801561028457600080fd5b506101c76102933660046121a2565b610a13565b3480156102a457600080fd5b50600a545b60405190815260200161017c565b3480156102c357600080fd5b506102a96102d2366004611fb1565b610a73565b6102a96102e536600461214c565b610af9565b3480156102f657600080fd5b5061030a6103053660046121a2565b610b3b565b60405161017c91906123f8565b34801561032357600080fd5b5061019a610ba5565b6101ff61033a3660046121a2565b610bb4565b34801561034b57600080fd5b506101ff61035a3660046120b1565b610d27565b34801561036b57600080fd5b506101ff61037a366004612038565b610d36565b6101ff61038d3660046121a2565b610d68565b34801561039e57600080fd5b5061019a6103ad3660046121a2565b610dd3565b3480156103be57600080fd5b50610236610ee4565b3480156103d357600080fd5b5061030a6110c0565b6101ff6103ea3660046121ba565b611137565b3480156103fb57600080fd5b5061017061040a366004611fcb565b6001600160a01b03918216600090815260056020908152604080832093909416825291909152205460ff1690565b34801561044457600080fd5b506102a9611283565b60006001600160e01b031982166380ac58cd60e01b148061047e57506001600160e01b03198216635b5e139f60e01b145b8061049957506301ffc9a760e01b6001600160e01b03198316145b92915050565b6060600080546104ae90612461565b80601f01602080910402602001604051908101604052809291908181526020018280546104da90612461565b80156105275780601f106104fc57610100808354040283529160200191610527565b820191906000526020600020905b81548152906001019060200180831161050a57829003601f168201915b5050505050905090565b600061053c82611293565b506000908152600460205260409020546001600160a01b031690565b600061056382610a13565b9050806001600160a01b0316836001600160a01b031614156105d65760405162461bcd60e51b815260206004820152602160248201527f4552433732313a20617070726f76616c20746f2063757272656e74206f776e656044820152603960f91b60648201526084015b60405180910390fd5b336001600160a01b03821614806105f257506105f2813361040a565b6106645760405162461bcd60e51b815260206004820152603d60248201527f4552433732313a20617070726f76652063616c6c6572206973206e6f7420746f60448201527f6b656e206f776e6572206f7220617070726f76656420666f7220616c6c00000060648201526084016105cd565b61066e83836112f5565b505050565b61067d3382611363565b6106995760405162461bcd60e51b81526004016105cd90612314565b61066e8383836113e1565b606060006106b160075490565b905060006106be60085490565b6106c8908361241e565b905060008167ffffffffffffffff8111156106f357634e487b7160e01b600052604160045260246000fd5b60405190808252806020026020018201604052801561072c57816020015b610719611e58565b8152602001906001900390816107115790505b509050600080805b8581101561081457610747816001612406565b6000818152600b602052604090206004015490925060ff16151560011415610802576000828152600b6020908152604091829020825160a0810184528154815260018201546001600160a01b039081169382019390935260028201549092169282019290925260038201546060820152600482015460ff161515608082015285518690869081106107e857634e487b7160e01b600052603260045260246000fd5b60209081029190910101526107fe600185612406565b9350505b8061080c8161249c565b915050610734565b509195945050505050565b61066e83838360405180602001604052806000815250610d36565b6060600061084760075490565b905060008080805b848110156108aa5733600b6000610867846001612406565b81526020810191909152604001600020600101546001600160a01b0316141561089857610895600185612406565b93505b806108a28161249c565b91505061084f565b5060008367ffffffffffffffff8111156108d457634e487b7160e01b600052604160045260246000fd5b60405190808252806020026020018201604052801561090d57816020015b6108fa611e58565b8152602001906001900390816108f25790505b50905060005b85811015610a095733600b600061092b846001612406565b81526020810191909152604001600020600101546001600160a01b031614156109f757610959816001612406565b6000818152600b6020908152604091829020825160a0810184528154815260018201546001600160a01b039081169382019390935260028201549092169282019290925260038201546060820152600482015460ff1615156080820152845192955090918490879081106109dd57634e487b7160e01b600052603260045260246000fd5b60209081029190910101526109f3600186612406565b9450505b80610a018161249c565b915050610913565b5095945050505050565b6000818152600260205260408120546001600160a01b0316806104995760405162461bcd60e51b8152602060048201526018602482015277115490cdcc8c4e881a5b9d985b1a59081d1bdad95b88125160421b60448201526064016105cd565b60006001600160a01b038216610add5760405162461bcd60e51b815260206004820152602960248201527f4552433732313a2061646472657373207a65726f206973206e6f7420612076616044820152683634b21037bbb732b960b91b60648201526084016105cd565b506001600160a01b031660009081526003602052604090205490565b6000610b09600780546001019055565b6000610b1460075490565b9050610b203382611552565b610b2a818561156c565b610b348184611606565b9392505050565b610b43611e58565b506000908152600b6020908152604091829020825160a0810184528154815260018201546001600160a01b03908116938201939093526002820154909216928201929092526003820154606082015260049091015460ff161515608082015290565b6060600180546104ae90612461565b6000818152600b6020526040902060038101546002909101546001600160a01b0316348214610c4d576040805162461bcd60e51b81526020600482015260248101919091527f506c65617365207375626d6974207468652061736b696e67207072696365206960448201527f6e206f7264657220746f20636f6d706c6574652074686520707572636861736560648201526084016105cd565b6000838152600b6020526040902060048101805460ff191690556001810180546001600160a01b031990811633179091556002909101805490911630179055610c9a600880546001019055565b610ca53033856113e1565b610caf3084610558565b600954600a546040516001600160a01b039092169181156108fc0291906000818181858888f19350505050158015610ceb573d6000803e3d6000fd5b506040516001600160a01b038216903480156108fc02916000818181858888f19350505050158015610d21573d6000803e3d6000fd5b50505050565b610d323383836117a8565b5050565b610d403383611363565b610d5c5760405162461bcd60e51b81526004016105cd90612314565b610d2184848484611877565b6009546001600160a01b03163314610dce5760405162461bcd60e51b815260206004820152602360248201527f4f6e6c79206f776e65722063616e20757064617465206c697374696e6720707260448201526269636560e81b60648201526084016105cd565b600a55565b6060610dde82611293565b60008281526006602052604081208054610df790612461565b80601f0160208091040260200160405190810160405280929190818152602001828054610e2390612461565b8015610e705780601f10610e4557610100808354040283529160200191610e70565b820191906000526020600020905b815481529060010190602001808311610e5357829003601f168201915b505050505090506000610e8e60408051602081019091526000815290565b9050805160001415610ea1575092915050565b815115610ed3578082604051602001610ebb929190612247565b60405160208183030381529060405292505050919050565b610edc846118aa565b949350505050565b60606000610ef160075490565b905060008060005b83811015610f545733600b6000610f11846001612406565b81526020810191909152604001600020600201546001600160a01b03161415610f4257610f3f600184612406565b92505b80610f4c8161249c565b915050610ef9565b5060008267ffffffffffffffff811115610f7e57634e487b7160e01b600052604160045260246000fd5b604051908082528060200260200182016040528015610fb757816020015b610fa4611e58565b815260200190600190039081610f9c5790505b50905060005b848110156110b75733600b6000610fd5846001612406565b81526020810191909152604001600020600201546001600160a01b031614156110a5576000600b81611008846001612406565b81526020808201929092526040908101600020815160a0810183528154815260018201546001600160a01b039081169482019490945260028201549093169183019190915260038101546060830152600481015460ff1615156080830152845190925084908690811061108b57634e487b7160e01b600052603260045260246000fd5b60209081029190910101526110a1600185612406565b9350505b806110af8161249c565b915050610fbd565b50949350505050565b6110c8611e58565b60006110d360075490565b6000908152600b6020908152604091829020825160a0810184528154815260018201546001600160a01b03908116938201939093526002820154909216928201929092526003820154606082015260049091015460ff161515608082015292915050565b6000828152600b60205260409020600101546001600160a01b031633146111ab5760405162461bcd60e51b815260206004820152602260248201527f596f75206172656e277420746865204f776e6572206f66207468697320546f6b60448201526132b760f11b60648201526084016105cd565b600a5434146112065760405162461bcd60e51b815260206004820152602160248201527f596f75206861766520746f2070617920746865206c697374696e6720707269636044820152606560f81b60648201526084016105cd565b6000828152600b60205260409020600101546001600160a01b031661122b600861191d565b6000838152600b60205260409020600481018054600160ff199091168117909155600282018054336001600160a01b031991821617909155908201805430921682179055600390910183905561066e908290856113e1565b600061128e60075490565b905090565b6000818152600260205260409020546001600160a01b03166112f25760405162461bcd60e51b8152602060048201526018602482015277115490cdcc8c4e881a5b9d985b1a59081d1bdad95b88125160421b60448201526064016105cd565b50565b600081815260046020526040902080546001600160a01b0319166001600160a01b038416908117909155819061132a82610a13565b6001600160a01b03167f8c5be1e5ebec7d5bd14f71427d1e84f3dd0314c0f7b2291e5b200ac8c7c3b92560405160405180910390a45050565b60008061136f83610a13565b9050806001600160a01b0316846001600160a01b031614806113b657506001600160a01b0380821660009081526005602090815260408083209388168352929052205460ff165b80610edc5750836001600160a01b03166113cf84610531565b6001600160a01b031614949350505050565b826001600160a01b03166113f482610a13565b6001600160a01b03161461141a5760405162461bcd60e51b81526004016105cd906123b3565b6001600160a01b03821661147c5760405162461bcd60e51b8152602060048201526024808201527f4552433732313a207472616e7366657220746f20746865207a65726f206164646044820152637265737360e01b60648201526084016105cd565b6114898383836001611974565b826001600160a01b031661149c82610a13565b6001600160a01b0316146114c25760405162461bcd60e51b81526004016105cd906123b3565b600081815260046020908152604080832080546001600160a01b03199081169091556001600160a01b0387811680865260038552838620805460001901905590871680865283862080546001019055868652600290945282852080549092168417909155905184937fddf252ad1be2c89b69c2b068fc378daa952ba7f163c4a11628f55a4df523b3ef91a4505050565b610d328282604051806020016040528060008152506119fc565b6000828152600260205260409020546001600160a01b03166115e75760405162461bcd60e51b815260206004820152602e60248201527f45524337323155524953746f726167653a2055524920736574206f66206e6f6e60448201526d32bc34b9ba32b73a103a37b5b2b760911b60648201526084016105cd565b6000828152600660209081526040909120825161066e92840190611e86565b600a5434146116635760405162461bcd60e51b815260206004820152602360248201527f486f706566756c6c792073656e64696e672074686520636f727265637420707260448201526269636560e81b60648201526084016105cd565b600081116116be5760405162461bcd60e51b815260206004820152602260248201527f4d616b652073757265207468652070726963652069736e2774206e6567617469604482015261766560f01b60648201526084016105cd565b6040805160a081018252838152306020808301828152338486018181526060860188815260016080880181815260008c8152600b9097529890952096518755925193860180546001600160a01b039586166001600160a01b03199182161790915590516002870180549190951691161790925551600384015592516004909201805492151560ff199093169290921790915561175b9190846113e1565b604080513081523360208201529081018290526001606082015282907f9339409317fd01fabff48b703019016f49159bacc801ae872d2ca637d226e4c09060800160405180910390a25050565b816001600160a01b0316836001600160a01b0316141561180a5760405162461bcd60e51b815260206004820152601960248201527f4552433732313a20617070726f766520746f2063616c6c65720000000000000060448201526064016105cd565b6001600160a01b03838116600081815260056020908152604080832094871680845294825291829020805460ff191686151590811790915591519182527f17307eab39ab6107e8899845ad3d59bd9653f200f220920489ca2b5937696c31910160405180910390a3505050565b6118828484846113e1565b61188e84848484611a2f565b610d215760405162461bcd60e51b81526004016105cd90612361565b60606118b582611293565b60006118cc60408051602081019091526000815290565b905060008151116118ec5760405180602001604052806000815250610b34565b806118f684611b3c565b604051602001611907929190612247565b6040516020818303038152906040529392505050565b80548061196c5760405162461bcd60e51b815260206004820152601b60248201527f436f756e7465723a2064656372656d656e74206f766572666c6f77000000000060448201526064016105cd565b600019019055565b6001811115610d21576001600160a01b038416156119ba576001600160a01b038416600090815260036020526040812080548392906119b490849061241e565b90915550505b6001600160a01b03831615610d21576001600160a01b038316600090815260036020526040812080548392906119f1908490612406565b909155505050505050565b611a068383611be7565b611a136000848484611a2f565b61066e5760405162461bcd60e51b81526004016105cd90612361565b60006001600160a01b0384163b15611b3157604051630a85bd0160e11b81526001600160a01b0385169063150b7a0290611a73903390899088908890600401612276565b602060405180830381600087803b158015611a8d57600080fd5b505af1925050508015611abd575060408051601f3d908101601f19168201909252611aba91810190612130565b60015b611b17573d808015611aeb576040519150601f19603f3d011682016040523d82523d6000602084013e611af0565b606091505b508051611b0f5760405162461bcd60e51b81526004016105cd90612361565b805181602001fd5b6001600160e01b031916630a85bd0160e11b149050610edc565b506001949350505050565b60606000611b4983611d80565b600101905060008167ffffffffffffffff811115611b7757634e487b7160e01b600052604160045260246000fd5b6040519080825280601f01601f191660200182016040528015611ba1576020820181803683370190505b5090508181016020015b600019016f181899199a1a9b1b9c1cb0b131b232b360811b600a86061a8153600a8504945084611bda57611bdf565b611bab565b509392505050565b6001600160a01b038216611c3d5760405162461bcd60e51b815260206004820181905260248201527f4552433732313a206d696e7420746f20746865207a65726f206164647265737360448201526064016105cd565b6000818152600260205260409020546001600160a01b031615611ca25760405162461bcd60e51b815260206004820152601c60248201527f4552433732313a20746f6b656e20616c7265616479206d696e7465640000000060448201526064016105cd565b611cb0600083836001611974565b6000818152600260205260409020546001600160a01b031615611d155760405162461bcd60e51b815260206004820152601c60248201527f4552433732313a20746f6b656e20616c7265616479206d696e7465640000000060448201526064016105cd565b6001600160a01b038216600081815260036020908152604080832080546001019055848352600290915280822080546001600160a01b0319168417905551839291907fddf252ad1be2c89b69c2b068fc378daa952ba7f163c4a11628f55a4df523b3ef908290a45050565b60008072184f03e93ff9f4daa797ed6e38ed64bf6a1f0160401b8310611dbf5772184f03e93ff9f4daa797ed6e38ed64bf6a1f0160401b830492506040015b6d04ee2d6d415b85acef81000000008310611deb576d04ee2d6d415b85acef8100000000830492506020015b662386f26fc100008310611e0957662386f26fc10000830492506010015b6305f5e1008310611e21576305f5e100830492506008015b6127108310611e3557612710830492506004015b60648310611e47576064830492506002015b600a83106104995760010192915050565b6040805160a08101825260008082526020820181905291810182905260608101829052608081019190915290565b828054611e9290612461565b90600052602060002090601f016020900481019282611eb45760008555611efa565b82601f10611ecd57805160ff1916838001178555611efa565b82800160010185558215611efa579182015b82811115611efa578251825591602001919060010190611edf565b50611f06929150611f0a565b5090565b5b80821115611f065760008155600101611f0b565b600067ffffffffffffffff80841115611f3a57611f3a6124cd565b604051601f8501601f19908116603f01168101908282118183101715611f6257611f626124cd565b81604052809350858152868686011115611f7b57600080fd5b858560208301376000602087830101525050509392505050565b80356001600160a01b0381168114611fac57600080fd5b919050565b600060208284031215611fc2578081fd5b610b3482611f95565b60008060408385031215611fdd578081fd5b611fe683611f95565b9150611ff460208401611f95565b90509250929050565b600080600060608486031215612011578081fd5b61201a84611f95565b925061202860208501611f95565b9150604084013590509250925092565b6000806000806080858703121561204d578081fd5b61205685611f95565b935061206460208601611f95565b925060408501359150606085013567ffffffffffffffff811115612086578182fd5b8501601f81018713612096578182fd5b6120a587823560208401611f1f565b91505092959194509250565b600080604083850312156120c3578182fd5b6120cc83611f95565b9150602083013580151581146120e0578182fd5b809150509250929050565b600080604083850312156120fd578182fd5b61210683611f95565b946020939093013593505050565b600060208284031215612125578081fd5b8135610b34816124e3565b600060208284031215612141578081fd5b8151610b34816124e3565b6000806040838503121561215e578182fd5b823567ffffffffffffffff811115612174578283fd5b8301601f81018513612184578283fd5b61219385823560208401611f1f565b95602094909401359450505050565b6000602082840312156121b3578081fd5b5035919050565b600080604083850312156121cc578182fd5b50508035926020909101359150565b600081518084526121f3816020860160208601612435565b601f01601f19169290920160200192915050565b805182526020808201516001600160a01b039081169184019190915260408083015190911690830152606080820151908301526080908101511515910152565b60008351612259818460208801612435565b83519083019061226d818360208801612435565b01949350505050565b6001600160a01b03858116825284166020820152604081018390526080606082018190526000906122a9908301846121db565b9695505050505050565b6020808252825182820181905260009190848201906040850190845b818110156122f5576122e2838551612207565b9284019260a092909201916001016122cf565b50909695505050505050565b602081526000610b3460208301846121db565b6020808252602d908201527f4552433732313a2063616c6c6572206973206e6f7420746f6b656e206f776e6560408201526c1c881bdc88185c1c1c9bdd9959609a1b606082015260800190565b60208082526032908201527f4552433732313a207472616e7366657220746f206e6f6e20455243373231526560408201527131b2b4bb32b91034b6b83632b6b2b73a32b960711b606082015260800190565b60208082526025908201527f4552433732313a207472616e736665722066726f6d20696e636f72726563742060408201526437bbb732b960d91b606082015260800190565b60a081016104998284612207565b60008219821115612419576124196124b7565b500190565b600082821015612430576124306124b7565b500390565b60005b83811015612450578181015183820152602001612438565b83811115610d215750506000910152565b600181811c9082168061247557607f821691505b6020821081141561249657634e487b7160e01b600052602260045260246000fd5b50919050565b60006000198214156124b0576124b06124b7565b5060010190565b634e487b7160e01b600052601160045260246000fd5b634e487b7160e01b600052604160045260246000fd5b6001600160e01b0319811681146112f257600080fdfea2646970667358221220d96e935fb812b9b00988ca34c4341e9bf68d9c83c7448459057584968195476764736f6c63430008040033",
  "linkReferences": {},
  "deployedLinkReferences": {}
}